:020000040000fa
:080000000002040000000000f2
:020000040000fa
:04000800720300007f
:020000040000fa
:04000c00720300007b
:020000040000fa
:040010007203000077
:020000040000fa
:040014007203000073
:020000040000fa
:04001800720300006f
:020000040000fa
:04001c00720300006b
:020000040000fa
:040020007203000067
:020000040000fa
:040024007203000063
:020000040000fa
:04002800720300005f
:020000040000fa
:04002c00720300005b
:020000040000fa
:040030007203000057
:020000040000fa
:0400340004030000c1
:020000040000fa
:04003800720300004f
:020000040000fa
:04003c00720300004b
:020000040000fa
:040040007203000047
:020000040000fa
:040044007203000043
:020000040000fa
:04004800fa020000b8
:020000040000fa
:04004c00720300003b
:020000040000fa
:040050007203000037
:020000040000fa
:040054007203000033
:020000040000fa
:04005800720300002f
:020000040000fa
:04005c004e0300004f
:020000040000fa
:040060007203000027
:020000040000fa
:040064007203000023
:020000040000fa
:04006800720300001f
:020000040000fa
:04006c00720300001b
:020000040000fa
:040070007203000017
:020000040000fa
:040074007203000013
:020000040000fa
:04007800720300000f
:020000040000fa
:04007c00720300000b
:020000040000fa
:040080007203000007
:020000040000fa
:040084007203000003
:020000040000fa
:0400880072030000ff
:020000040000fa
:04008c0072030000fb
:020000040000fa
:0400900072030000f7
:020000040000fa
:040094002403000041
:020000040000fa
:0400980072030000ef
:020000040000fa
:04009c0072030000eb
:020000040000fa
:0400a00072030000e7
:020000040000fa
:0400a40072030000e3
:020000040000fa
:0400a80072030000df
:020000040000fa
:0400ac0072030000db
:020000040000fa
:0400b00072030000d7
:020000040000fa
:0400b40072030000d3
:020000040000fa
:0400b80072030000cf
:020000040000fa
:0400bc0072030000cb
:020000040000fa
:0400c00072030000c7
:020000040000fa
:0400c40072030000c3
:020000040000fa
:0400c80072030000bf
:020000040000fa
:0400cc0072030000bb
:020000040000fa
:0400d00072030000b7
:020000040000fa
:0400d40072030000b3
:020000040000fa
:0400d80072030000af
:020000040000fa
:0400dc0072030000ab
:020000040000fa
:0400e00072030000a7
:020000040000fa
:0400e40072030000a3
:020000040000fa
:0400e800720300009f
:020000040000fa
:0400ec00720300009b
:020000040000fa
:0400f0007203000097
:020000040000fa
:0400f4007203000093
:020000040000fa
:0400f800720300008f
:020000040000fa
:0400fc00720300008b
:020000040000fa
:040100007203000086
:020000040000fa
:040104007203000082
:020000040000fa
:04010800720300007e
:020000040000fa
:04010c00720300007a
:020000040000fa
:040110007203000076
:020000040000fa
:040114007203000072
:020000040000fa
:04011800720300006e
:020000040000fa
:04011c00720300006a
:020000040000fa
:040120007203000066
:020000040000fa
:040124007203000062
:020000040000fa
:04012800720300005e
:020000040000fa
:04012c00720300005a
:020000040000fa
:040130007203000056
:020000040000fa
:040134007203000052
:020000040000fa
:04013800720300004e
:020000040000fa
:04013c00720300004a
:020000040000fa
:040140007203000046
:020000040000fa
:040144007203000042
:020000040000fa
:04014800720300003e
:020000040000fa
:04014c00720300003a
:020000040000fa
:040150007203000036
:020000040000fa
:040154007203000032
:020000040000fa
:04015800720300002e
:020000040000fa
:04015c00720300002a
:020000040000fa
:040160007203000026
:020000040000fa
:040164007203000022
:020000040000fa
:04016800720300001e
:020000040000fa
:04016c00720300001a
:020000040000fa
:040170007203000016
:020000040000fa
:040174007203000012
:020000040000fa
:04017800720300000e
:020000040000fa
:04017c00720300000a
:020000040000fa
:040180007203000006
:020000040000fa
:040184007203000002
:020000040000fa
:0401880072030000fe
:020000040000fa
:04018c0072030000fa
:020000040000fa
:0401900072030000f6
:020000040000fa
:0401940072030000f2
:020000040000fa
:0401980072030000ee
:020000040000fa
:04019c0072030000ea
:020000040000fa
:0401a00072030000e6
:020000040000fa
:0401a40072030000e2
:020000040000fa
:0401a80072030000de
:020000040000fa
:0401ac0072030000da
:020000040000fa
:0401b00072030000d6
:020000040000fa
:0401b40072030000d2
:020000040000fa
:0401b80072030000ce
:020000040000fa
:0401bc0072030000ca
:020000040000fa
:0401c00072030000c6
:020000040000fa
:0401c40072030000c2
:020000040000fa
:0401c80072030000be
:020000040000fa
:0401cc0072030000ba
:020000040000fa
:0401d00072030000b6
:020000040000fa
:0401d40072030000b2
:020000040000fa
:0401d80072030000ae
:020000040000fa
:0401dc0072030000aa
:020000040000fa
:0401e00072030000a6
:020000040000fa
:0401e40072030000a2
:020000040000fa
:0401e800720300009e
:020000040000fa
:0401ec00720300009a
:020000040000fa
:0401f0007203000096
:020000040000fa
:0401f4007203000092
:020000040000fa
:0401f800720300008e
:020000040000fa
:0401fc00720300008a
:020000040000fa
:040200007203000085
:020000040000fa
:040204007203000081
:020000040000fa
:04020800720300007d
:020000040000fa
:04020c007203000079
:020000040000fa
:040210007203000075
:020000040000fa
:040214007203000071
:020000040000fa
:04021800720300006d
:020000040000fa
:04021c007203000069
:020000040000fa
:040220007203000065
:020000040000fa
:040224007203000061
:020000040000fa
:04022800720300005d
:020000040000fa
:04022c007203000059
:020000040000fa
:040230007203000055
:020000040000fa
:040234007203000051
:020000040000fa
:04023800720300004d
:020000040000fa
:04023c007203000049
:020000040000fa
:040240007203000045
:020000040000fa
:040244007203000041
:020000040000fa
:04024800720300003d
:020000040000fa
:04024c007203000039
:020000040000fa
:040250007203000035
:020000040000fa
:040254007203000031
:020000040000fa
:04025800720300002d
:020000040000fa
:04025c007203000029
:020000040000fa
:040260007203000025
:020000040000fa
:040264007203000021
:020000040000fa
:04026800720300001d
:020000040000fa
:04026c007203000019
:020000040000fa
:040270007203000015
:020000040000fa
:040274007203000011
:020000040000fa
:04027800720300000d
:020000040000fa
:04027c007203000009
:020000040000fa
:040280007203000005
:020000040000fa
:10040000ef0321000eff2c000e0188000000000009
:10041000000020000000e000020032000001200087
:100420002002880014000700b00007000000e00070
:1004300003003a008006210001002000020037007e
:100440000000200001002000810f70000100320038
:100450000f000700000020000000e0000200320052
:100460000000020000000000de06020000000000a4
:100470000040da000000fe00200020000000e00044
:1004800002003200100020009001880000000600e9
:10049000a1028800800478000000eb001f003700f4
:1004a000e284440054a0b4009905ba00e2844400f8
:1004b00054a0b4009906ba00e284440054a0b400e9
:1004c0000006eb00476fde00fd07b200ae018800ba
:1004d000636ce10003003a000ad801000000eb0061
:1004e0000e003700606ce10008003a00004deb00a0
:1004f0000a05e800020039003420ec000af0a000f0
:100500008b05e900f9ff3e00040037006168e10057
:10051000010032000086eb000b00070019c7ba008b
:100520000e04e0001905ba0003003a000a00e000da
:10053000dbff3a0000000600fe07b200ae028800b2
:100540008a047800f5ff37000cd0a300e20f4d00bd
:100550001c00390089027800354dba000a05e80010
:10056000020039003420ec000af0a0008b05e900fd
:100570000f003200254dba000a05e80002003900dc
:100580003420ec000af0a0008b05e90008003200de
:100590000c00e0000600320015cdba000a05e800a4
:1005a000020039003420ec000af0a0008b05e900bd
:1005b0008984e80054a0b4000b00e000e2ff3a0098
:1005c000000006009902ba00055d78008b05e9007d
:1005d000f7ff3200c82ade00055d78008b05e900d0
:1005e000f3ff32000c00e000f1ff320019ddba0029
:1005f000eeff37000000fa000108a9000108a90079
:100600000080fa00004006003600f800809fbe001f
:10061000829fbe00849fbe00869fbe000000fa003d
:100620000068a900fd0407006e0607000080fa00bc
:100630004f03be004f02be004f01be004f00be0080
:100640003600f900004006003600f800809fbe002a
:10065000829fbe00849fbe00869fbe000000fa00fd
:100660000368a900008080001180800061004000c4
:10067000e08048000080880011808800ae020700fa
:100680000080fa004f03be004f02be004f01be00c3
:100690004f00be003600f90000400600801f7800c1
:1006a0000000fa0001a8a9000018800090818800cd
:1006b00010188000a081880020188000b081880078
:1006c00030188000c081880040188000d0818800e8
:1006d00010c0b3000bf0b7000080fa004f007800a4
:1006e000004006000040da000000fe0000000500a7
:1006f00003f0a200889fbe008a9fbe008c1f780076
:10070000180107001f0133006450e1004f00320060
:100710006420e1005200320003826c0007003b00bd
:100720000905d0000306d000820f54000c065d00be
:1007300002003900020032008901780003067800c7
:100740008582550004003d000003fd008103fd008b
:100750008502ea008b854200840f720002003b0094
:1007600060001000e08018006011b8000005eb0088
:100770007a28e1000a00390006007800c75ddd0034
:10078000f707b200878075002d0037008281710065
:100790000a017800610560008180d1000080d300eb
:1007a0008502e900f9ff3b00060440008784480009
:1007b00002003b0060041400e0841c000988a300d0
:1007c000070032008a81710082817100610164003a
:1007d0008904d1000884d3008b05e8001700370096
:1007e0000978a30013003a000b00e0001300340066
:1007f0008b05e9000804440089844c000a44740015
:100800000978a3000d003a000b00e0000700340057
:100810008b05e9000804440089844c0001003a007b
:100820000b0020000978a300f7ff32000001eb0065
:1008300002003700828171000a0178008e000700f3
:100840000cf0a70001f0a000d70037006420e10001
:1008500002003a00838f6c00d70033000801be000d
:100860000200be00d0003700889fbe008a9fbe00f5
:100870008c1f7800bb000700c200330003866c00a9
:100880006450e1002e0032006420e10033003200a9
:100890006150e1002f0032006120e10031003200a0
:1008a00085855500eb07b0000900200008042000f2
:1008b000050037000804440089844c000a00310018
:1008c0000603430087834b000001530081815b00d6
:1008d000f8ff33000203be000800a0000804440033
:1008e00089844c00f6ff3900c639dd0083017300ae
:1008f00001003200130020008904d1000884d300d5
:100900000998a300050032000800a7000300a0001a
:100910008904d1000884d3008b05e8008904d10044
:100920000884d3000001eb000281d20052000700ce
:1009300001f0a1000cf0a70001f0a0009a00370020
:100940006420e1009c0032000801be000200be00ed
:10095000f7ff37006120e100970032006000b80027
:10096000f3ff37000000200001f82700f0ff3700f8
:1009700014002000c7003700f4ff2f00c500370027
:100980000001be00620007000470a70003f0a10090
:100990006509b100160032000d0035006828e1003d
:1009a00006003500f0ff2f00f1ff27000300e000f4
:1009b00013003b000100280000000500000040007b
:1009c000818048008502e900fcff3a0008003700fa
:1009d000f88f420002003c008000eb0000000500a0
:1009e0008100d1000080d3008502e800fcff3a00be
:1009f0000300e00002003b0060001000e0801800ef
:100a0000000006000001be00410007000470a700be
:100a100003f0a10003f8a30013003a006509b10038
:100a200010003200090035006928e100020035009d
:100a300001002800000005000000400081804800ff
:100a40008502e900fcff3a0000000600f88f420032
:100a5000050035008100d1000080d3008502e80048
:100a6000fcff3a00000006008000eb0000000500db
:100a70006011b800a200370081002000618055009d
:100a80000b003d000b00200061fe2f000100e10083
:100a90001d00340082817100610164008904d1006d
:100aa0000884d3000000e800faff3a00710020003b
:100ab0006100640003007000020060000900320061
:100ac00061044400e0844c000988a5000500320060
:100ad0008b05e8006808e10002003a008904d100b3
:100ae0000884d300f20f20000258e10005003d0009
:100af000c75ddd00f907b200898075000800780045
:100b0000000006000bf827008b00780000000500ad
:100b1000c70ade00f107b200f50fb200080032008c
:100b2000e1cf4200020032000170a0002400050065
:100b3000810f700001003200040805004400050028
:100b4000810f700002003a00140005008502e900e0
:100b50000000400081c04800fcff3b000170a00085
:100b6000240005000004be00e9ff07000003be00ea
:100b70000405be000200be00e5ff0700844f7500bb
:100b8000000006000200be006450e10005003600cf
:100b90006420e100020036000968a30001003a0069
:100ba0000800be000160a0004f0678004f05be009f
:100bb0004f04be0000000600f0ff2f00f1ff2700e9
:100bc000f9ff3700889fbe008a9fbe008c1f780007
:100bd000e4ff0700ebff330003866c006450e10084
:100be000240032006420e100270032006150e1005f
:100bf000220032006120e100210032008b8542009a
:100c0000eb07b1000134b800003ab8000804420014
:100c100089844a00013ab8000030b800888040005a
:100c200009014a00040033000000400081804800b0
:100c3000020149008b05e900c909dd00830170004c
:100c40000100320013002000c814de004814dd004b
:100c50004709de001200b200c808de0008847000f8
:100c600085ff070001f0a1000cf0a70001f0a00033
:100c7000cdff37006120e100cfff32000801be0048
:100c80000200be00f7ff37006150e100fcff3a00b0
:100c9000c9ff3700889fbe008a9fbe00841f78006e
:100ca000b0ff07004f00780011003300f0ff2f0065
:100cb000838f6c0006003b00040565000a00a70056
:100cc0000800370009f0a6001000200008003700d7
:100cd000820f5400838f5c00030039001000200055
:100ce00001003e000000200009f0a7000000ea001b
:100cf0004f05be004f04be000000e00000000600eb
:100d0000889fbe008a9fbe000082700004027100ae
:100d100004827100260032000004be000200be0002
:100d20006011b8006b092000950220000182cf00fd
:100d30000a0039000541b1000082cf0007003900e8
:100d40000541b1000982cf00040039000541b1001e
:100d50000882cf00010039000541b1000542520070
:100d6000120032000a003b008281710061016400c0
:100d70008100d1000080d3008984d3000884d3008f
:100d80008b05e8000442e800f7ff3a00070037004f
:100d90000804440089844c00000048008180480019
:100da0008b05e9000442e900f9ff3a0032ff070031
:0c0db0004f05be004f04be00000006000e
:020000040000fa
:100dbc001a00fa00881f780097040700d504070072
:100dcc0064cea80064eea800254ea800dd01070043
:100ddc00f5010700ff010700f102070044040700ba
:100dec00010037000000000083040700e14f5000b1
:100dfc00fcff3a007c040700000f78008204070017
:100e0c001e007800100078008000eb0015ff070032
:100e1c00323323003305240067ff07000200200053
:100e2c00035824008dfe0700d2cc2c00c3042400f0
:100e3c0061ff070010079800210798001e01900021
:100e4c00ae019000000020008120240083fe0700ea
:100e5c0002002000030a240022fe070050818800b3
:100e6c00618188001e80e800100078008000eb0093
:100e7c00fcfe070032332300330524004eff07002d
:100e8c00020020000358240074fe0700d2cc2c0072
:100e9c00c304240048ff070030079800410798005e
:100eac003e019000ce019000000020008120240023
:100ebc006afe070002002000030a240009fe070056
:100ecc00f0808800018188009e00780064804000da
:100edc00100078008000eb00e2fe070032332300a4
:100eec003305240034ff07000200200003582400bf
:100efc005afe0700d2cc2c00c30424002eff07009e
:100f0c0050079800610798005e019000ee01900078
:100f1c00000020008120240050fe07000200200069
:100f2c00030a2400effd070010818800218188004e
:100f3c009e00780066804000100078008000eb0076
:100f4c00c8fe070032332300330524001aff0700c4
:100f5c00020020000358240040fe0700d2cc2c00d5
:100f6c00c304240014ff070070079800010f9800b9
:100f7c007e0190008e09900000002000812024004a
:100f8c0036fe070002002000030a2400d5fd0700ee
:100f9c0070818800818188009e0078006880400004
:100fac00100078008000eb00aefe07003233230007
:100fbc003305240000ff0700020020000358240022
:100fcc0026fe0700d2cc2c00c3042400fafe070036
:100fdc00100f9800210f98001e099000ae09900088
:100fec0000002000812024001cfe070002002000cd
:100ffc00030a2400bbfd0700308188004181880072
:10100c00508180006181800018c0b3000200200074
:10101c000322240053fe07000000e000010035000d
:10102c000044eb000804e00006003200254ea80046
:10103c000000200001f82300300f9800410f9800a9
:10104c0001003700254ea900f0808000018180004e
:10105c0018c0b300020020000322240041fe070048
:10106c000000e000010035000044eb000804e00043
:10107c0002003200254ea80001003700254ea900c1
:10108c00108180002181800018c0b3000200200074
:10109c00031f240033fe07000000e00001003500b0
:1010ac000044eb000804e0000200320064eea800eb
:1010bc000100370064eea90030818000418180007e
:1010cc0018c0b300020020000322240025fe0700f4
:1010dc000000e000010035000044eb000804e000d3
:1010ec000200320064cea8000100370064cea900d3
:1010fc00708180008181800018c0b3000200200044
:10110c000322240017fe07000000e0000100350058
:10111c000044eb000804e0000200320064cea8009a
:10112c0031ff370064cea9002fff37000000fa0012
:10113c0006d0bf000080fb00cf80de00b200200094
:10114c0003002000820f5000838f580060003e0087
:10115c00000601000b003700140037001d0037009b
:10116c0027003700280037003100370032003700e5
:10117c003b0037003c003700460037004700370083
:10118c00510037000030ef000230ef000041eb005f
:10119c006000b800ba02070012c0b3006000b800cb
:1011ac00b702070010c0b30006f0b7000280800041
:1011bc0013808000803e200001002000800f510031
:1011cc00818f59004500360020c0b30006f0b700ef
:1011dc00430037000041eb0000002000011f2400f9
:1011ec00a702070012c0b30000002000011f24005a
:1011fc00a302070030c0b30006f0b7003800370078
:10120c0039000700360037000041eb0000002000d9
:10121c00011f24009a02070012c0b3006000b8003e
:10122c009702070050c0b30006f0b7002c0037003f
:10123c002d0007002a0037000041eb006000b800c9
:10124c008f02070012c0b30000002000011f240011
:10125c008b02070070c0b30006f0b7002000370007
:10126c00210007001e0037000041eb0000002000a9
:10127c00011724008202070012c0b30000002000f6
:10128c0001172c007e02070090c0b30006f0b700d7
:10129c001300370014000700110037000041eb0069
:1012ac000000200001172c007502070012c0b300cb
:1012bc00000020000117240071020700b0c0b30029
:1012cc0006f0b700060037000700070004003700df
:1012dc000670ef0000000000010037000000000065
:1012ec000080fa00000006000200fa00881f780057
:1012fc000040eb00004f7800f080800001818000fe
:10130c0018c0b300020020000322240095fd070042
:10131c000000e000010035000044eb000804e00090
:10132c0019003200108180002181800018c0b300a8
:10133c0002002000031f24008cfd07000000e000c9
:10134c0001003c000044eb000804e0000e003200f9
:10135c00308180004181800018c0b3000200200061
:10136c000322240081fd07000000e00001003c0086
:10137c000044eb000804e0000300320020c0b3007e
:10138c00004f780052003700f0808000018180000f
:10139c0018c0b300020020000322240073fd0700d4
:1013ac000000e00001003c000044eb000804e000f9
:1013bc0016003200108180002181800018c0b3001b
:1013cc0002002000031f240068fd07000000e0005d
:1013dc0001003c000044eb000804e0000b0032006c
:1013ec00308180004181800018c0b30002002000d1
:1013fc00032224005bfd07000000e0000100350023
:10140c000044eb000804e00031003a001081800039
:10141c002181800018c0b30002002000031f2400ab
:10142c0050fd07000000e000010035000044eb0017
:10143c000804e0000300320030c0b300004f780015
:10144c0023003700f08080000181800018c0b300b9
:10145c00020020000322240044fd07000000e000ed
:10146c0001003c000044eb000804e00018003200ce
:10147c00108180002181800018c0b3000200200080
:10148c00031f240039fd07000000e00001003c00b0
:10149c000044eb000804e0000d00320030818000b5
:1014ac004181800018c0b3000200200003222400f8
:1014bc002efd07000000e00001003c000044eb00a2
:1014cc000804e000020032000040eb00004f7800fe
:1014dc001e4078000004e00003003a0020c0b30076
:1014ec0007f0b700140037001e407800e24f5000a0
:1014fc0003003a0040c0b30007f0b7000e003700fd
:10150c001e407800e14f50000b003a0060c0b30061
:10151c0007f0b70007d0bf008080fb0006d0bf00eb
:10152c000080fb000000e900808f500002003200b8
:10153c0007d0bf0006f0b7004f0478000080fa0017
:10154c00000006000000fa0013e1a90011e1a90057
:10155c001061a8001021a90081088000f0fc2f0068
:10156c0000806000800888000a21ef000621ef004f
:10157c00404c20007008880000402b006008880058
:10158c002142800080ff2f00008060000000a0003e
:10159c00204288000108a9002108a80011e1a80038
:1015ac000080fa00000006000000fa0005e1a90026
:1015bc000421a90000002000613124001000070064
:1015cc000068a9002068a80005e1a8000080fa00c6
:1015dc00000006000000fa001fe1a9001e21a9006e
:1015ec0000002000a1472400790007000368a9002f
:1015fc002368a8001fe1a8000080fa000000060084
:10160c000400fa00881f7800008fbe0021088000bb
:10161c00f0fc2f0000806000200888001e0178007c
:10162c009e0190000068290081c124008bfc0700fa
:10163c0018c0b30002f02f00f3772400cbfc070096
:10164c000000e00001003c000044eb000804e00056
:10165c005400320021088000f0fc2f000080600054
:10166c000040a000200888001e0178009e01900018
:10167c000068290081c1240078fc070002002000ca
:10168c000310240075fc070018c0b30002f02f00f3
:10169c00f3772400b5fc07000000e00001003c00db
:1016ac000044eb000804e000320032002108800006
:1016bc00f0fc2f00008060000050a0002008880083
:1016cc001e0178009e0190000068290081c1240051
:1016dc0062fc070002002000032824005ffc0700c6
:1016ec0018c0b30002f02f00f37724009ffc070012
:1016fc000000e00001003c000044eb000804e000a6
:10170c00100032002108800000032000010070004e
:10171c00200888001e0178009e01900000682900b6
:10172c0081c124004dfc0700020020000338240076
:10173c004afc07008ffc07000000780010088800a6
:10174c00200037001e0178009e01900000682900df
:10175c0081c1240041fc0700020020000328240062
:10176c003efc070083fc070000007800100888008e
:10177c00140037001e0178009e01900000682900bb
:10178c0081c1240035fc0700020020000310240056
:10179c0032fc070077fc0700000078001008880076
:1017ac00080037001e0178009e0190000068290097
:1017bc0081c1240029fc07006efc070000007800a2
:1017cc00100888004f0478000080fa000000060022
:1017dc000400fa00881f7800008fbe00f10880001a
:1017ec00f0fc2f0000806000f00888001e017800db
:1017fc009e0190000068290081c1240017fc07009d
:10180c0018c0b30002f02f00f377240057fc070038
:10181c000000e00001003c000044eb000804e00084
:10182c0054003200f1088000f0fc2f0000806000b2
:10183c000040a000f00888001e0178009e01900076
:10184c000068290081c1240004fc0700020020006c
:10185c000310240001fc070018c0b30002f02f0095
:10186c00f377240041fc07000000e00001003c007d
:10187c000044eb000804e00032003200f108800064
:10188c00f0fc2f00008060000050a000f0088800e1
:10189c001e0178009e0190000068290081c124007f
:1018ac00eefb07000200200003282400ebfb0700de
:1018bc0018c0b30002f02f00f37724002bfc0700b4
:1018cc000000e00001003c000044eb000804e000d4
:1018dc00100032002108800000032000010070007d
:1018ec00200888001e0178009e01900000682900e5
:1018fc0081c12400d9fb070002002000033824001a
:10190c00d6fb07001bfc070000007800d0088800fd
:10191c00200037001e0178009e019000006829000d
:10192c0081c12400cdfb0700020020000328240005
:10193c00cafb07000ffc070000007800d0088800e5
:10194c00140037001e0178009e01900000682900e9
:10195c0081c12400c1fb07000200200003102400f9
:10196c00befb070003fc070000007800d0088800cd
:10197c00080037001e0178009e01900000682900c5
:10198c0081c12400b5fb0700fafb070000007800ba
:10199c00d00888004f0478000080fa000000060090
:1019ac000000fa001160800080ff2f0000806000b2
:1019bc001060880000fa20002060880023aca8008a
:1019cc00238ca80011618000f03f2f000080600084
:1019dc0000a0a00010618800300020002061880069
:1019ec00c3aca800c38ca80011668000f03f2f0088
:1019fc000080600000a0a00010668800300020006d
:101a0c002066880001eca8000080fa0000000600a7
:101a1c000400fa00889fbe000000200001f823009b
:101a2c00008fbe00d4808000e5808000b0808000f4
:101a3c00c180800018c0b3000001be000400be00cd
:101a4c00c8fb07000000e000010035000044eb007b
:101a5c000804e0000b003200b8808000c9808000d0
:101a6c00d0808000e18080001e0178009e019000f3
:101a7c001dfb07000801be00c4000700d0808800d1
:101a8c00e1808800d4808000e5808000b0808000f8
:101a9c00c180800018c0b3000001be000400be006d
:101aac00b2fb07000000e00001003c000044eb002a
:101abc000804e0000b003200b8808000c980800070
:101acc00d0808000e18080001e0178009e01900093
:101adc0004fb07000801be0094000700d0808800ba
:101aec00e1808800d0808000e180800018c0b300c5
:101afc006011b8009dfb07000000e00001003c00f5
:101b0c000044eb000804e00004003200c3cca90040
:101b1c0024eea800c3eca80003003700c3eca90016
:101b2c0024cea800c3cca800d0808000e180800027
:101b3c006800070002002000032224001efc07009e
:101b4c00adfb0700000078003066880094808000b0
:101b5c00a5808000708080008180800018c0b30058
:101b6c000001be000400be007efb07000000e00088
:101b7c00010035000044eb000804e0000b003200cb
:101b8c00788080008980800090808000a180800017
:101b9c001e0178009e019000d3fa07000801be00d8
:101bac007a00070090808800a180880094808000d3
:101bbc00a5808000708080008180800018c0b300f8
:101bcc000001be000400be0068fb07000000e0003e
:101bdc0001003c000044eb000804e0000b00320064
:101bec00788080008980800090808000a1808000b7
:101bfc001e0178009e019000bafa07000801be0091
:101c0c004a00070090808800a180880090808000a6
:101c1c00a180800018c0b3006011b80053fb07000e
:101c2c000000e00001003c000044eb000804e00070
:101c3c000400320023cca90015eea80023eca80068
:101c4c000300370023eca90015cea80023cca80074
:101c5c0090808000a18080001e0007000200200000
:101c6c0003222400d4fb070063fb0700000078006c
:101c7c00306188004f04be000080fa0000000600ae
:101c8c000600fa00008fbe00424798004e409000bc
:101c9c00e14f500005003a001e0178009e019000b3
:101cac007280880083808800080037004e409000c6
:101cbc000004e00005003a001e0078009e00900031
:101ccc0001f0a200b0808800c18088000080fa007a
:101cdc00000006000400fa00881f7800008fbe0088
:101cec0018c0b3006011b8001e0078009e00900070
:101cfc001efb07000000e00001003d000044eb006b
:101d0c000804e000030032001e0078009e009000e2
:101d1c00030037001e0078009e00900001f0a20026
:101d2c004f0478000080fa00000006000800fa005a
:101d3c00881f7800008fbe00220798003307980098
:101d4c0018c0b3002e019000be0190001e00780058
:101d5c009e00900005fb07000000e00001003c0025
:101d6c000044eb000804e000030032001e00780081
:101d7c009e009000020037002e009000be009000e4
:101d8c004f0478000080fa00000006000800fa00fa
:101d9c00881f7800008fbe00220798003307980038
:101dac0018c0b3002e019000be0190001e007800f8
:101dbc009e009000ebfa07000000e00001003500e7
:101dcc000044eb000804e000030032001e00780021
:101ddc009e009000020037002e009000be00900084
:101dec004f0478000080fa00000006000c00fa0096
:101dfc00881f7800008fbe002207980033079800d8
:101e0c00440798005507980018c0b3004e01900085
:101e1c00de0190001e0078009e009000d3fa0700af
:101e2c000000e00001003c000044eb000804e0006e
:101e3c00040032004e019000de019000028fbe00c3
:101e4c000e00370018c0b3002e019000be019000a8
:101e5c001e0078009e009000c2fa07000000e0000f
:101e6c00010035000044eb000804e00003003200e0
:101e7c002e019000be019000028fbe001e00780063
:101e8c009e0090004f0478000080fa0000000600cd
:101e9c000400fa00008fbe00b2fd20009304240061
:101eac001e0078009e0090006cfa070002002000d3
:101ebc004333240040fb07000080fa0000000600ba
:101ecc000400fa00008fbe00b2fd20009304240031
:101edc001e0078009e00900037fb070002002000d7
:101eec00433324005dfa07000080fa00000006006e
:101efc000000fa0021e3a9002143a8000119800089
:101f0c00f0cf2f0000806000001988002043a9004a
:101f1c0001198000000e20000100700000198800db
:101f2c0011198000f0ff210000806000101988005a
:101f3c002343a80011198000f0cf2f00008060000f
:101f4c00101988001119800030f82f0000806000f3
:101f5c000040a000101988002203a9002223a90028
:101f6c0025e3a900f0c0b30024e3b70021198000d9
:101f7c00f00f2e008080600000f020000100700047
:101f8c00201988003303a9001e2ea8002e0ea800cd
:101f9c002f6ea8004feea8006f2ea8003063a8008b
:101fac0030c3a8003163a80031e3a8002e03a800b9
:101fbc004119800000fc2f0000806000401988004f
:101fcc0028e3a90001a8a90021a8a80021e3a800e2
:101fdc000080fa00000006000000fa002023a80090
:101fec000080fa00000006000000fa002003210027
:101ffc000080fa00000006000000fa000bd0bf00c1
:10200c000080fa00000006000000fa000b70ef00e0
:10201c000080fa00000006000000fa00f003200027
:10202c00303a8800213a8000f0f32f0000806000e5
:10203c00203a8800213a800000fe2f0000806000ca
:10204c000000a000203a8800120020008007200029
:10205c00a109200033742000804978008149780060
:10206c0082497800103a8000000178000200a0003c
:10207c006004200071052000237420008049780042
:10208c00814978008249780000000000113a8000f4
:10209c00000027008080600000002100808f50002d
:1020ac00faff3a0000000000113a80000002200004
:1020bc00008060000000e000fbff32000080fa00ae
:0420cc00000006000a
:020000040000fa
:1020d0000610000002000000800000000010000058
:1020e00006000000800000000c1000002600000028
:1020f00080000000081000000200000082000000c4
:1021000014000000321000000c00000080000000ed
:102110000a10000002000000800000000000000023
:020000040000fa
:102120000000fa000e2eef001e2eef002e2eef0004
:102130003e2eef004e2eef005e2eef006e2eef00d3
:10214000214ea90060cea90060eea90011cea90021
:1021500011eea90020cea90020eea9000080fa000f
:042160000000060075
:020000040000fa
:02000004000af0
:04afe000cfff00009f
:020000040000fa
:02000004000af0
:04afe400ffff00006b
:020000040000fa
:02000004000af0
:04afe8007fff0000e7
:020000040000fa
:02000004000af0
:04afec005fff000003
:020000040000fa
:02000004000af0
:04aff00038ff000026
:020000040000fa
:02000004000af0
:04aff400ffffff005c
:00000001FF
