:020000040000fa
:080000000002040000000000f2
:020000040000fa
:04000800720300007f
:020000040000fa
:04000c00720300007b
:020000040000fa
:040010007203000077
:020000040000fa
:040014007203000073
:020000040000fa
:04001800720300006f
:020000040000fa
:04001c00720300006b
:020000040000fa
:040020007203000067
:020000040000fa
:040024007203000063
:020000040000fa
:04002800720300005f
:020000040000fa
:04002c00720300005b
:020000040000fa
:040030007203000057
:020000040000fa
:0400340004030000c1
:020000040000fa
:04003800720300004f
:020000040000fa
:04003c00720300004b
:020000040000fa
:040040007203000047
:020000040000fa
:040044007203000043
:020000040000fa
:04004800fa020000b8
:020000040000fa
:04004c00720300003b
:020000040000fa
:040050007203000037
:020000040000fa
:040054007203000033
:020000040000fa
:04005800720300002f
:020000040000fa
:04005c004e0300004f
:020000040000fa
:040060007203000027
:020000040000fa
:040064007203000023
:020000040000fa
:04006800720300001f
:020000040000fa
:04006c00720300001b
:020000040000fa
:040070007203000017
:020000040000fa
:040074007203000013
:020000040000fa
:04007800720300000f
:020000040000fa
:04007c00720300000b
:020000040000fa
:040080007203000007
:020000040000fa
:040084007203000003
:020000040000fa
:0400880072030000ff
:020000040000fa
:04008c0072030000fb
:020000040000fa
:0400900072030000f7
:020000040000fa
:040094002403000041
:020000040000fa
:0400980072030000ef
:020000040000fa
:04009c0072030000eb
:020000040000fa
:0400a00072030000e7
:020000040000fa
:0400a40072030000e3
:020000040000fa
:0400a80072030000df
:020000040000fa
:0400ac0072030000db
:020000040000fa
:0400b00072030000d7
:020000040000fa
:0400b40072030000d3
:020000040000fa
:0400b80072030000cf
:020000040000fa
:0400bc0072030000cb
:020000040000fa
:0400c00072030000c7
:020000040000fa
:0400c40072030000c3
:020000040000fa
:0400c80072030000bf
:020000040000fa
:0400cc0072030000bb
:020000040000fa
:0400d00072030000b7
:020000040000fa
:0400d40072030000b3
:020000040000fa
:0400d80072030000af
:020000040000fa
:0400dc0072030000ab
:020000040000fa
:0400e00072030000a7
:020000040000fa
:0400e40072030000a3
:020000040000fa
:0400e800720300009f
:020000040000fa
:0400ec00720300009b
:020000040000fa
:0400f0007203000097
:020000040000fa
:0400f4007203000093
:020000040000fa
:0400f800720300008f
:020000040000fa
:0400fc00720300008b
:020000040000fa
:040100007203000086
:020000040000fa
:040104007203000082
:020000040000fa
:04010800720300007e
:020000040000fa
:04010c00720300007a
:020000040000fa
:040110007203000076
:020000040000fa
:040114007203000072
:020000040000fa
:04011800720300006e
:020000040000fa
:04011c00720300006a
:020000040000fa
:040120007203000066
:020000040000fa
:040124007203000062
:020000040000fa
:04012800720300005e
:020000040000fa
:04012c00720300005a
:020000040000fa
:040130007203000056
:020000040000fa
:040134007203000052
:020000040000fa
:04013800720300004e
:020000040000fa
:04013c00720300004a
:020000040000fa
:040140007203000046
:020000040000fa
:040144007203000042
:020000040000fa
:04014800720300003e
:020000040000fa
:04014c00720300003a
:020000040000fa
:040150007203000036
:020000040000fa
:040154007203000032
:020000040000fa
:04015800720300002e
:020000040000fa
:04015c00720300002a
:020000040000fa
:040160007203000026
:020000040000fa
:040164007203000022
:020000040000fa
:04016800720300001e
:020000040000fa
:04016c00720300001a
:020000040000fa
:040170007203000016
:020000040000fa
:040174007203000012
:020000040000fa
:04017800720300000e
:020000040000fa
:04017c00720300000a
:020000040000fa
:040180007203000006
:020000040000fa
:040184007203000002
:020000040000fa
:0401880072030000fe
:020000040000fa
:04018c0072030000fa
:020000040000fa
:0401900072030000f6
:020000040000fa
:0401940072030000f2
:020000040000fa
:0401980072030000ee
:020000040000fa
:04019c0072030000ea
:020000040000fa
:0401a00072030000e6
:020000040000fa
:0401a40072030000e2
:020000040000fa
:0401a80072030000de
:020000040000fa
:0401ac0072030000da
:020000040000fa
:0401b00072030000d6
:020000040000fa
:0401b40072030000d2
:020000040000fa
:0401b80072030000ce
:020000040000fa
:0401bc0072030000ca
:020000040000fa
:0401c00072030000c6
:020000040000fa
:0401c40072030000c2
:020000040000fa
:0401c80072030000be
:020000040000fa
:0401cc0072030000ba
:020000040000fa
:0401d00072030000b6
:020000040000fa
:0401d40072030000b2
:020000040000fa
:0401d80072030000ae
:020000040000fa
:0401dc0072030000aa
:020000040000fa
:0401e00072030000a6
:020000040000fa
:0401e40072030000a2
:020000040000fa
:0401e800720300009e
:020000040000fa
:0401ec00720300009a
:020000040000fa
:0401f0007203000096
:020000040000fa
:0401f4007203000092
:020000040000fa
:0401f800720300008e
:020000040000fa
:0401fc00720300008a
:020000040000fa
:040200007203000085
:020000040000fa
:040204007203000081
:020000040000fa
:04020800720300007d
:020000040000fa
:04020c007203000079
:020000040000fa
:040210007203000075
:020000040000fa
:040214007203000071
:020000040000fa
:04021800720300006d
:020000040000fa
:04021c007203000069
:020000040000fa
:040220007203000065
:020000040000fa
:040224007203000061
:020000040000fa
:04022800720300005d
:020000040000fa
:04022c007203000059
:020000040000fa
:040230007203000055
:020000040000fa
:040234007203000051
:020000040000fa
:04023800720300004d
:020000040000fa
:04023c007203000049
:020000040000fa
:040240007203000045
:020000040000fa
:040244007203000041
:020000040000fa
:04024800720300003d
:020000040000fa
:04024c007203000039
:020000040000fa
:040250007203000035
:020000040000fa
:040254007203000031
:020000040000fa
:04025800720300002d
:020000040000fa
:04025c007203000029
:020000040000fa
:040260007203000025
:020000040000fa
:040264007203000021
:020000040000fa
:04026800720300001d
:020000040000fa
:04026c007203000019
:020000040000fa
:040270007203000015
:020000040000fa
:040274007203000011
:020000040000fa
:04027800720300000d
:020000040000fa
:04027c007203000009
:020000040000fa
:040280007203000005
:020000040000fa
:10040000ef0321000eff2c000e0188000000000009
:10041000000020000000e000020032000001200087
:100420002002880014000700b00007000000e00070
:1004300003003a00e0132100010020000200370011
:100440000000200001002000810f70000100320038
:100450000f000700000020000000e0000200320052
:100460000000020000000000de06020000000000a4
:100470000040da000000fe00200020000000e00044
:1004800002003200100020009001880000000600e9
:10049000a1028800800478000000eb001f003700f4
:1004a000e284440054a0b4009905ba00e2844400f8
:1004b00054a0b4009906ba00e284440054a0b400e9
:1004c0000006eb00476fde00fd07b200ae018800ba
:1004d000636ce10003003a000ad801000000eb0061
:1004e0000e003700606ce10008003a00004deb00a0
:1004f0000a05e800020039003420ec000af0a000f0
:100500008b05e900f9ff3e00040037006168e10057
:10051000010032000086eb000b00070019c7ba008b
:100520000e04e0001905ba0003003a000a00e000da
:10053000dbff3a0000000600fe07b200ae028800b2
:100540008a047800f5ff37000cd0a300e20f4d00bd
:100550001c00390089027800354dba000a05e80010
:10056000020039003420ec000af0a0008b05e900fd
:100570000f003200254dba000a05e80002003900dc
:100580003420ec000af0a0008b05e90008003200de
:100590000c00e0000600320015cdba000a05e800a4
:1005a000020039003420ec000af0a0008b05e900bd
:1005b0008984e80054a0b4000b00e000e2ff3a0098
:1005c000000006009902ba00055d78008b05e9007d
:1005d000f7ff3200c82ade00055d78008b05e900d0
:1005e000f3ff32000c00e000f1ff320019ddba0029
:1005f000eeff37000000fa000108a9000108a90079
:100600000080fa00004006003600f800809fbe001f
:10061000829fbe00849fbe00869fbe000000fa003d
:100620000068a90068050700d90607000080fa00e5
:100630004f03be004f02be004f01be004f00be0080
:100640003600f900004006003600f800809fbe002a
:10065000829fbe00849fbe00869fbe000000fa00fd
:100660000368a900008080001180800061004000c4
:10067000e08048000080880011808800c9020700df
:100680000080fa004f03be004f02be004f01be00c3
:100690004f00be003600f90000400600801f7800c1
:1006a0000000fa0001a8a9000018800090818800cd
:1006b00010188000a081880020188000b081880078
:1006c00030188000c081880040188000d0818800e8
:1006d00010c0b3000bf0b7000080fa004f007800a4
:1006e000004006000040da000000fe0000000500a7
:1006f00003f0a200889fbe008a9fbe008c1f780076
:10070000180107001f0133006450e1004f00320060
:100710006420e1005200320003826c0007003b00bd
:100720000905d0000306d000820f54000c065d00be
:1007300002003900020032008901780003067800c7
:100740008582550004003d000003fd008103fd008b
:100750008502ea008b854200840f720002003b0094
:1007600060001000e08018006011b8000005eb0088
:100770007a28e1000a00390006007800c75ddd0034
:10078000f707b200878075002d0037008281710065
:100790000a017800610560008180d1000080d300eb
:1007a0008502e900f9ff3b00060440008784480009
:1007b00002003b0060041400e0841c000988a300d0
:1007c000070032008a81710082817100610164003a
:1007d0008904d1000884d3008b05e8001700370096
:1007e0000978a30013003a000b00e0001300340066
:1007f0008b05e9000804440089844c000a44740015
:100800000978a3000d003a000b00e0000700340057
:100810008b05e9000804440089844c0001003a007b
:100820000b0020000978a300f7ff32000001eb0065
:1008300002003700828171000a0178008e000700f3
:100840000cf0a70001f0a000d70037006420e10001
:1008500002003a00838f6c00d70033000801be000d
:100860000200be00d0003700889fbe008a9fbe00f5
:100870008c1f7800bb000700c200330003866c00a9
:100880006450e1002e0032006420e10033003200a9
:100890006150e1002f0032006120e10031003200a0
:1008a00085855500eb07b0000900200008042000f2
:1008b000050037000804440089844c000a00310018
:1008c0000603430087834b000001530081815b00d6
:1008d000f8ff33000203be000800a0000804440033
:1008e00089844c00f6ff3900c639dd0083017300ae
:1008f00001003200130020008904d1000884d300d5
:100900000998a300050032000800a7000300a0001a
:100910008904d1000884d3008b05e8008904d10044
:100920000884d3000001eb000281d20052000700ce
:1009300001f0a1000cf0a70001f0a0009a00370020
:100940006420e1009c0032000801be000200be00ed
:10095000f7ff37006120e100970032006000b80027
:10096000f3ff37000000200001f82700f0ff3700f8
:1009700014002000c7003700f4ff2f00c500370027
:100980000001be00620007000470a70003f0a10090
:100990006509b100160032000d0035006828e1003d
:1009a00006003500f0ff2f00f1ff27000300e000f4
:1009b00013003b000100280000000500000040007b
:1009c000818048008502e900fcff3a0008003700fa
:1009d000f88f420002003c008000eb0000000500a0
:1009e0008100d1000080d3008502e800fcff3a00be
:1009f0000300e00002003b0060001000e0801800ef
:100a0000000006000001be00410007000470a700be
:100a100003f0a10003f8a30013003a006509b10038
:100a200010003200090035006928e100020035009d
:100a300001002800000005000000400081804800ff
:100a40008502e900fcff3a0000000600f88f420032
:100a5000050035008100d1000080d3008502e80048
:100a6000fcff3a00000006008000eb0000000500db
:100a70006011b800a200370081002000618055009d
:100a80000b003d000b00200061fe2f000100e10083
:100a90001d00340082817100610164008904d1006d
:100aa0000884d3000000e800faff3a00710020003b
:100ab0006100640003007000020060000900320061
:100ac00061044400e0844c000988a5000500320060
:100ad0008b05e8006808e10002003a008904d100b3
:100ae0000884d300f20f20000258e10005003d0009
:100af000c75ddd00f907b200898075000800780045
:100b0000000006000bf827008b00780000000500ad
:100b1000c70ade00f107b200f50fb200080032008c
:100b2000e1cf4200020032000170a0002400050065
:100b3000810f700001003200040805004400050028
:100b4000810f700002003a00140005008502e900e0
:100b50000000400081c04800fcff3b000170a00085
:100b6000240005000004be00e9ff07000003be00ea
:100b70000405be000200be00e5ff0700844f7500bb
:100b8000000006000200be006450e10005003600cf
:100b90006420e100020036000968a30001003a0069
:100ba0000800be000160a0004f0678004f05be009f
:100bb0004f04be0000000600f0ff2f00f1ff2700e9
:100bc000f9ff3700889fbe008a9fbe008c1f780007
:100bd000e4ff0700ebff330003866c006450e10084
:100be000240032006420e100270032006150e1005f
:100bf000220032006120e100210032008b8542009a
:100c0000eb07b1000134b800003ab8000804420014
:100c100089844a00013ab8000030b800888040005a
:100c200009014a00040033000000400081804800b0
:100c3000020149008b05e900c909dd00830170004c
:100c40000100320013002000c814de004814dd004b
:100c50004709de001200b200c808de0008847000f8
:100c600085ff070001f0a1000cf0a70001f0a00033
:100c7000cdff37006120e100cfff32000801be0048
:100c80000200be00f7ff37006150e100fcff3a00b0
:100c9000c9ff3700889fbe008a9fbe00841f78006e
:100ca000b0ff07004f00780011003300f0ff2f0065
:100cb000838f6c0006003b00040565000a00a70056
:100cc0000800370009f0a6001000200008003700d7
:100cd000820f5400838f5c00030039001000200055
:100ce00001003e000000200009f0a7000000ea001b
:100cf0004f05be004f04be000000e00000000600eb
:100d0000889fbe008a9fbe000082700004027100ae
:100d100004827100260032000004be000200be0002
:100d20006011b8006b092000950220000182cf00fd
:100d30000a0039000541b1000082cf0007003900e8
:100d40000541b1000982cf00040039000541b1001e
:100d50000882cf00010039000541b1000542520070
:100d6000120032000a003b008281710061016400c0
:100d70008100d1000080d3008984d3000884d3008f
:100d80008b05e8000442e800f7ff3a00070037004f
:100d90000804440089844c00000048008180480019
:100da0008b05e9000442e900f9ff3a0032ff070031
:0c0db0004f05be004f04be00000006000e
:020000040000fa
:100dbc002200fa00881f7800020507004005070092
:100dcc0064cea80064eea800254ea80048020700d7
:100ddc00600207006a0207005c030700af0407000b
:100dec00f0040700e14f5000c6003a00e904070088
:100dfc0040079800ef0407004e00900010007800a8
:100e0c008000eb0017ff070032332300330524006a
:100e1c0069ff070002002000035824008ffe070022
:100e2c00d2cc2c00c304240063ff070050079800a9
:100e3c00610798005e019000ee0190000000200018
:100e4c008120240085fe070002002000030a2400f4
:100e5c0024fe070050818800618188004e009000bc
:100e6c000080e800100078008000eb00fdfe070019
:100e7c0032332300330524004fff0700020020000b
:100e8c000358240075fe0700d2cc2c00c3042400a8
:100e9c0049ff070070079800010f98007e01900031
:100eac008e09900000002000812024006bfe0700ba
:100ebc0002002000030a24000afe0700f0808800cc
:100ecc00018188004e009000640040001000780002
:100edc008000eb00e3fe07003233230033052400cf
:100eec0035ff070002002000035824005bfe0700ba
:100efc00d2cc2c00c30424002fff0700100f980045
:100f0c00210f98001e099000ae09900000002000ef
:100f1c008120240051fe070002002000030a240057
:100f2c00f0fd070010818800218188004e009000a0
:100f3c0066004000100078008000eb00c9fe07003e
:100f4c0032332300330524001bff0700020020006e
:100f5c000358240041fe0700d2cc2c00c30424000b
:100f6c0015ff0700300f9800410f98003e099000c4
:100f7c00ce099000000020008120240037fe0700dd
:100f8c0002002000030a2400d6fd070070818800af
:100f9c00818188004e0090006800400010007800ad
:100fac008000eb00affe0700323323003305240032
:100fbc0001ff0700020020000358240027fe070051
:100fcc00d2cc2c00c3042400fbfe0700500f980069
:100fdc00610f98005e099000ee099000000020005f
:100fec00812024001dfe070002002000030a2400bb
:100ffc00bcfd070030818800418188005081800051
:10100c006181800018c0b30002002000031f24007f
:10101c0054fe07000000e000010035000044eb0026
:10102c000804e00004003200254ea8001000200047
:10103c0030079800020037000000eb0030079800e2
:10104c00254ea900f08080000181800018c0b300fb
:10105c0002002000031f240042fe07000000e000f5
:10106c00010035000044eb000804e00003003200ee
:10107c002000200020079800020037000000eb0041
:10108c0020079800108180002181800018c0b300d7
:10109c0002002000031f240032fe07000000e000c5
:1010ac00010035000044eb000804e00002003200af
:1010bc0064eea8000100370064eea9007081800086
:1010cc008181800018c0b30002002000031f24009f
:1010dc0024fe07000000e000010035000044eb0096
:1010ec000804e0000400320000012000000f78002a
:1010fc0064cea8000100370064cea9000000eb000c
:10110c00000f7800308180004181800018c0b3004e
:10111c0002002000031f240012fe07000000e00064
:10112c00010035000044eb000804e000040032002c
:10113c00800020001007980064cea8000200370041
:10114c000000eb00100798001e0078000000e00083
:10115c000c003a001e0090000000e00009003a006c
:10116c007e0890000000e00006003a002e0090007f
:10117c000000e00003003a003e0090000000e00098
:10118c000200320010002000010037000000eb00cc
:10119c000017980012ff37000000fa0006d0bf00bd
:1011ac000080fb00cf80de00b20020000300200096
:1011bc00820f5000838f580060003e000006010033
:1011cc000b003700140037001d00370027003700d4
:1011dc002800370031003700320037003b00370061
:1011ec003c003700460037004700370051003700fd
:1011fc000030ef000230ef000041eb006000b8005f
:10120c000a03070012c0b3006000b8000703070010
:10121c0010c0b30006f0b70002808000138080007d
:10122c00803e200001002000800f5100818f59006a
:10123c004500360020c0b30006f0b700430037006d
:10124c000041eb0000002000011f2400f702070002
:10125c0012c0b30000002000011f2400f30207009d
:10126c0030c0b30006f0b700380037003900070073
:10127c00360037000041eb0000002000011f240065
:10128c00ea02070012c0b3006000b800e7020700d2
:10129c0050c0b30006f0b7002c0037002d0007003b
:1012ac002a0037000041eb006000b800df020700a5
:1012bc0012c0b30000002000011f2400db02070055
:1012cc0070c0b30006f0b700200037002100070003
:1012dc001e0037000041eb00000020000117240025
:1012ec00d202070012c0b3000000200001172c002e
:1012fc00ce02070090c0b30006f0b7001300370011
:10130c0014000700110037000041eb000000200022
:10131c0001172c00c502070012c0b300000020000a
:10132c0001172400c1020700b0c0b30006f0b700db
:10133c000600370007000700040037000670ef00b6
:10134c000000000001003700000000000080fa00df
:10135c00000006000200fa00881f78000040eb0035
:10136c00004f7800f08080000181800018c0b3002d
:10137c0002002000031f24007afd07000000e0009b
:10138c00010035000044eb000804e00019003200b5
:10139c00108180002181800018c0b3000200200061
:1013ac00031a240071fd07000000e00001003c005e
:1013bc000044eb000804e0000e0032003081800095
:1013cc004181800018c0b30002002000031f2400dc
:1013dc0066fd07000000e00001003c000044eb004b
:1013ec000804e0000300320020c0b300004f780076
:1013fc008a003700f08080000181800018c0b300a3
:10140c0002002000031f240058fd07000000e0002c
:10141c0001003c000044eb000804e000190032001d
:10142c00108180002181800018c0b30002002000d0
:10143c00031a24004dfd07000000e00001003c00f1
:10144c000044eb000804e0000e0032003081800004
:10145c004181800018c0b30002002000031f24004b
:10146c0040fd07000000e000010035000044eb00e7
:10147c000804e0000300320010c0b300004f7800f5
:10148c0066003700108180002181800018c0b300f5
:10149c0002002000031f240032fd07000000e000c2
:1014ac00010035000044eb000804e00003003200aa
:1014bc0030c0b300004f780058003700f080800037
:1014cc000181800018c0b30002002000031f24001b
:1014dc0026fd07000000e00001003c000044eb008a
:1014ec000804e00019003200108180002181800086
:1014fc0018c0b30002002000031f24001bfd0700ce
:10150c000000e00001003c000044eb000804e00097
:10151c000e003200308180004181800018c0b30081
:10152c0002002000031f240010fd07000000e00053
:10153c0001003c000044eb000804e0000300320012
:10154c000040eb00004f78003400370050818000e1
:10155c006181800018c0b30002002000031a24002f
:10156c0000fd07000000e000010035000044eb0026
:10157c000804e0000e003200708180008181800040
:10158c0018c0b30002002000031a2400f5fc070069
:10159c000000e000010035000044eb000804e0000e
:1015ac000300320040c0b300004f78001b0037002e
:1015bc00508180006181800018c0b30002002000bf
:1015cc00031a2400e7fc07000000e00001003500ce
:1015dc000044eb000804e0000300320020c0b3001c
:1015ec00004f78000d0037007081800081818000f1
:1015fc0018c0b30002002000031a2400d9fc070015
:10160c000000e000010035000044eb000804e0009d
:10161c000200320010c0b300004f78001e4078006a
:10162c000004e00003003a0020c0b30007f0b7004c
:10163c00230037001e407800e24f500003003a00b0
:10164c0040c0b30007f0b7001d0037001e40780003
:10165c00e14f500003003a0060c0b30007f0b70040
:10166c00170037001e407800e34f500003003a008b
:10167c0080c0b30007f0b700110037001e4078009f
:10168c00e44f500003003a0000c1b30007f0b7006c
:10169c000b0037001e407800e54f500003003a0065
:1016ac0040c0b30007f0b700050037001e407800bb
:1016bc00e64f500002003a0060c0b30007f0b700dc
:1016cc0007d0bf008080fb0006d0bf000080fb006d
:1016dc000000e900808f50000200320007d0bf00ec
:1016ec0006f0b7004f0478000080fa0000000600f6
:1016fc000000fa0013e1a90011e1a9001061a80093
:10170c001021a90081088000f0fc2f0000806000ef
:10171c00800888000a21ef000621ef00404c2000d1
:10172c007008880000402b0060088800214280006f
:10173c0080ff2f00008060000000a0002042880085
:10174c000108a9002108a80011e1a8000080fa00f6
:10175c00000006000000fa0005e1a9000421a90020
:10176c000000200061312400100007000068a9006f
:10177c002068a80005e1a8000080fa00000006001f
:10178c000000fa001fe1a9001e21a90000002000a2
:10179c00a1472400790007000368a9002368a8006a
:1017ac001fe1a8000080fa00000006000400fa0007
:1017bc00881f7800008fbe0021088000f0fc2f00ed
:1017cc0000806000200888001e0178009e019000b7
:1017dc000068290081c1240020fc070018c0b30058
:1017ec0002f02f00f377240060fc07000000e000fb
:1017fc0001003c000044eb000804e00054003200ff
:10180c0021088000f0fc2f00008060000040a00048
:10181c00200888001e0178009e01900000682900b5
:10182c0081c124000dfc07000200200003102400dd
:10183c000afc070018c0b30002f02f00f377240055
:10184c004afc07000000e00001003c000044eb00f3
:10185c000804e0003200320021088000f0fc2f0068
:10186c00008060000050a000200888001e01780055
:10187c009e0190000068290081c12400f7fb07003d
:10188c000200200003282400f4fb070018c0b3005a
:10189c0002f02f00f377240034fc07000000e00076
:1018ac0001003c000044eb000804e0001000320092
:1018bc00210880000003200001007000200888002f
:1018cc001e0178009e0190000068290081c124004f
:1018dc00e2fb07000200200003382400dffb0700b6
:1018ec0024fc070000007800100888002000370056
:1018fc001e0178009e0190000068290081c124001f
:10190c00d6fb07000200200003282400d3fb0700ad
:10191c0018fc07000000780010088800140037003d
:10192c001e0178009e0190000068290081c12400ee
:10193c00cafb07000200200003102400c7fb0700ad
:10194c000cfc070000007800100888000800370025
:10195c001e0178009e0190000068290081c12400be
:10196c00befb070003fc070000007800100888008d
:10197c004f0478000080fa00000006000400fa0012
:10198c00881f7800008fbe00f1088000f0fc2f004b
:10199c0000806000f00888001e0178009e01900015
:1019ac000068290081c12400acfb070018c0b300fb
:1019bc0002f02f00f3772400ecfb07000000e0009e
:1019cc0001003c000044eb000804e000540032002d
:1019dc00f1088000f0fc2f00008060000040a000a7
:1019ec00f00888001e0178009e0190000068290014
:1019fc0081c1240099fb0700020020000310240081
:101a0c0096fb070018c0b30002f02f00f3772400f8
:101a1c00d6fb07000000e00001003c000044eb0096
:101a2c000804e00032003200f1088000f0fc2f00c6
:101a3c00008060000050a000f00888001e017800b3
:101a4c009e0190000068290081c1240083fb0700df
:101a5c00020020000328240080fb070018c0b300fc
:101a6c0002f02f00f3772400c0fb07000000e00019
:101a7c0001003c000044eb000804e00010003200c0
:101a8c00210880000003200001007000200888005d
:101a9c001e0178009e0190000068290081c124007d
:101aac006efb070002002000033824006bfb0700cc
:101abc00b0fb070000007800d00888002000370039
:101acc001e0178009e0190000068290081c124004d
:101adc0062fb070002002000032824005ffb0700c4
:101aec00a4fb070000007800d00888001400370021
:101afc001e0178009e0190000068290081c124001d
:101b0c0056fb0700020020000310240053fb0700c3
:101b1c0098fb070000007800d00888000800370008
:101b2c001e0178009e0190000068290081c12400ec
:101b3c004afb07008ffb070000007800d0088800e4
:101b4c004f0478000080fa00000006000000fa0044
:101b5c001160800080ff2f00008060001060880002
:101b6c0000fa20002060880023aca800238ca80079
:101b7c0011618000f03f2f000080600000a0a000e9
:101b8c00106188003000200020618800c3aca800e0
:101b9c00c38ca80011668000f03f2f00008060000d
:101bac0000a0a0001066880030002000206688008d
:101bbc0001eca8000080fa00000006000400fa0006
:101bcc00889fbe000000200001f82300008fbe009b
:101bdc00d4808000e5808000b0808000c1808000cf
:101bec0018c0b3000001be000400be005dfb07007e
:101bfc000000e000010035000044eb000804e000a8
:101c0c000b003200b8808000c9808000d08080003a
:101c1c00e18080001e0178009e019000b2fa07005e
:101c2c000801be00c4000700d0808800e180880055
:101c3c00d4808000e5808000b0808000c18080006e
:101c4c0018c0b3000001be000400be0047fb070033
:101c5c000000e00001003c000044eb000804e00040
:101c6c000b003200b8808000c9808000d0808000da
:101c7c00e18080001e0178009e01900099fa070017
:101c8c000801be0094000700d0808800e180880025
:101c9c00d0808000e180800018c0b3006011b800d3
:101cac0032fb07000000e00001003c000044eb00a8
:101cbc000804e00004003200c3cca90024eea80004
:101ccc00c3eca80003003700c3eca90024cea80085
:101cdc00c3cca800d0808000e180800068000700a1
:101cec000200200003222400b3fb070042fb070084
:101cfc00000078003066880094808000a580800009
:101d0c00708080008180800018c0b3000001be008c
:101d1c000400be0013fb07000000e00001003500ca
:101d2c000044eb000804e0000b00320078808000d7
:101d3c008980800090808000a18080001e01780046
:101d4c009e01900068fa07000801be007a000700a7
:101d5c0090808800a180880094808000a5808000fd
:101d6c00708080008180800018c0b3000001be002c
:101d7c000400be00fdfa07000000e00001003c007a
:101d8c000044eb000804e0000b0032007880800077
:101d9c008980800090808000a18080001e017800e6
:101dac009e0190004ffa07000801be004a00070090
:101dbc0090808800a180880090808000a1808000a5
:101dcc0018c0b3006011b800e8fa07000000e0008a
:101ddc0001003c000044eb000804e0000400320069
:101dec0023cca90015eea80023eca80003003700b3
:101dfc0023eca90015cea80023cca800908080006d
:101e0c00a18080001e000700020020000322240095
:101e1c0069fb0700f8fa07000000780030618800c1
:101e2c004f04be000080fa00000006000600fa0015
:101e3c00008fbe00424798004e409000e14f50008a
:101e4c0005003a001e0178009e0190007280880007
:101e5c0083808800080037004e4090000004e000aa
:101e6c0005003a001e0078009e00900001f0a200d0
:101e7c00b0808800c18088000080fa000000060055
:101e8c000400fa00881f7800008fbe0018c0b30051
:101e9c006011b8001e0078009e009000b3fa070095
:101eac000000e00001003d000044eb000804e000ed
:101ebc00030032001e0078009e00900003003700e3
:101ecc001e0078009e00900001f0a2004f047800e4
:101edc000080fa00000006000800fa00881f780055
:101eec00008fbe00220798003307980018c0b3007b
:101efc002e019000be0190001e0078009e00900004
:101f0c009afa07000000e00001003c000044eb00de
:101f1c000804e000030032001e0078009e009000d0
:101f2c00020037002e009000be0090004f04780095
:101f3c000080fa00000006000800fa00881f7800f4
:101f4c00008fbe00220798003307980018c0b3001a
:101f5c002e019000be0190001e0078009e009000a3
:101f6c0080fa07000000e000010035000044eb009f
:101f7c000804e000030032001e0078009e00900070
:101f8c00020037002e009000be0090004f04780035
:101f9c000080fa00000006000c00fa00881f780090
:101fac00008fbe0022079800330798004407980062
:101fbc005507980018c0b3004e019000de01900048
:101fcc001e0078009e00900068fa07000000e000f8
:101fdc0001003c000044eb000804e0000400320067
:101fec004e019000de019000028fbe000e00370003
:101ffc0018c0b3002e019000be0190001e007800a6
:10200c009e00900057fa07000000e0000100350028
:10201c000044eb000804e000030032002e019000a5
:10202c00be019000028fbe001e0078009e00900042
:10203c004f0478000080fa00000006000400fa004b
:10204c00008fbe00b2fd2000930424001e00780017
:10205c009e00900001fa0700020020004333240088
:10206c00d5fa07000080fa00000006000400fa0010
:10207c00008fbe00b2fd2000930424001e007800e7
:10208c009e009000ccfa070002002000433324008d
:10209c00f2f907000080fa00000006000000fa00c8
:1020ac0021e3a9002143a80001198000f0cf2f00e3
:1020bc0000806000001988002043a90001198000ed
:1020cc00000e20000100700000198800111980001a
:1020dc00f0ff210000806000101988002343a80045
:1020ec0011198000f0cf2f000080600010198800bb
:1020fc001119800030f82f00008060000040a00013
:10210c00101988002203a9002223a90025e3a900a5
:10211c00f0c0b30024e3b70021198000f00f2e00ab
:10212c008080600000f02000010070002019880001
:10213c003303a9001e2ea8002e0ea8002f6ea80097
:10214c004feea8006f2ea8003063a80030c3a80083
:10215c003163a80031e3a8002e03a80041198000c8
:10216c0000fc2f00008060004019880028e3a900c3
:10217c0001a8a90021a8a80021e3a8000080fa006a
:10218c00000006000000fa002023a8000080fa00de
:10219c00000006000000fa00200321000080fa0075
:1021ac00000006000000fa000bd0bf000080fa000f
:1021bc00000006000000fa000b70ef000080fa002f
:1021cc00000006000000fa00f0032000303a8800fe
:1021dc00213a8000f0f32f0000806000203a880044
:1021ec00213a800000fe2f00008060000000a0005b
:1021fc00203a88001200200080072000a10920004e
:10220c003374200080497800814978008249780035
:10221c00103a8000000178000200a0006004200049
:10222c0071052000237420008049780081497800d2
:10223c008249780000000000113a8000000027005d
:10224c008080600000002100808f5000faff3a006f
:10225c0000000000113a80000002200000806000a5
:10226c000000e000fbff32000080fa0000000600d6
:020000040000fa
:10227c0006100000020000008000000000100000aa
:10228c0006000000800000000c100000260000007a
:10229c008000000008100000020000008200000016
:1022ac0014000000321000000c0000008000000040
:1022bc000a10000002000000800000000000000076
:020000040000fa
:1022cc000000fa000e2eef001e2eef002e2eef0057
:1022dc003e2eef004e2eef005e2eef006e2eef0026
:1022ec00214ea90060cea90060eea90011cea90074
:1022fc0011eea90020cea90020eea9000080fa0062
:04230c0000000600c7
:020000040000fa
:02000004000af0
:04afe000cfff00009f
:020000040000fa
:02000004000af0
:04afe400ffff00006b
:020000040000fa
:02000004000af0
:04afe8007fff0000e7
:020000040000fa
:02000004000af0
:04afec005fff000003
:020000040000fa
:02000004000af0
:04aff00038ff000026
:020000040000fa
:02000004000af0
:04aff400ffffff005c
:00000001FF
